S014000066696E616C50726F6A6563742E737265632F
S11300000C942A000C9410080C9447000C9447009C
S11300100C9447000C9447000C9447000C9433084C
S11300200C9447000C9447000C9447000C94660809
S11300300C9447000C9447000C9447000C94470020
S11300400C9447000C9447000C9447000C94470010
S11300500C94470011241FBECFE5D8E0DEBFCDBF0E
S113006012E0A0E6B0E0E6E4F7E102C005900D92EC
S1130070A83EB107D9F722E0A8EEB2E001C01D9274
S1130080A33FB207E1F70E94C4030C94A10B0C94A4
S113009000008AB3837E8ABB86B1876886B90895D7
S11300A097B18770987F892B87B9369A3699FECF96
S11300B084B195B108950F931F93CF93DF938C016F
S11300C0EB010E945D0260E080E00E944E0280E647
S11300D090E00E948B0242E050E060E070E0C801D2
S11300E00E946A0368E080E00E944E0284E690E089
S11300F00E948B024BE050E060E070E0CE010E9471
S11301006A03DF91CF911F910F910895889A089502
S113011083E090E0909A2FE936E841E021503040A6
S11301204040E1F700C000009098EFE4F3EC319711
S1130130F1F700C00000019769F7089514BC85B574
S1130140886485BD85B5806285BD85B58B7E85BD9A
S11301508F9A8B98939AD79ADF9A08958AB3806C72
S11301608ABBDF9A85B5836085BD839937C0839B3D
S1130170FECF0E94670260E081E00E944E028091FF
S1130180E8029091E90201969093E9028093E802D3
S11301908230910561F08330910581F00197A9F4D3
S11301A088E690E00E948B0280E483BD089584E792
S11301B090E00E948B0280E883BD089581E890E07E
S11301C00E948B028FEF83BD08958DE890E00E941A
S11301D08B0213BC1092E9021092E80208958EB5C6
S11301E08B608EBD88E09DE39BBD8ABD89B780612D
S11301F089BF789408958A98929A8BB780648BBF4C
S113020085B7826085BF08958091ED022CE3829FBB
S1130210C0011124959587958093EC021092ED020C
S113022008958998919A089580B386958170089568
S113023080EF84BB15BA089580E185BB989B04C008
S11302409899FECF87E30895999B04C09999FECFAE
S113025084E308959A9B04C09A99FECF81E308959C
S11302609B9B04C09B99FECF83E6089581EE94E0A6
S11302700197F1F700C0000080E285BB989B04C0A1
S11302809899FECF88E30895999B04C09999FECF6D
S113029085E308959A9B04C09A99FECF82E308955A
S11302A09B9B04C09B99FECF80E3089581EE94E06C
S11302B00197F1F700C0000080E485BB989B04C05F
S11302C09899FECF89E30895999B04C09999FECF2C
S11302D086E308959A9B04C09A99FECF83E3089518
S11302E09B9B04C09B99FECF8DE3089581EE94E01F
S11302F00197F1F700C0000080E885BB989B04C01B
S11303009899FECF8FE20895999B04C09999FECFE6
S113031088E708959A9B04C09A99FECF8DE20895C8
S11303209B9B04C09B99FECF8BE2089581EE94E0E1
S11303300197F1F700C000008EE40895EF92FF9258
S11303400F931F93CF937C018C01060F111D1AC0CC
S11303500E941C01C82F8E34C1F00E94FD0183EC61
S113036099E00197F1F700C00000F701D701CD93A0
S11303707D0183EC99E00197F1F700C000008081D2
S11303808D3349F0E016F10641F00E941401892BE7
S1130390F9F681E003C080E001C081E0CF911F91B4
S11303A00F91FF90EF900895CF93DF9300D000D08A
S11303B0CDB7DEB721E3298332E33A8333E33B83CA
S11303C034E33C83FC01308132130DC03196DE01ED
S11303D01296049631912D91321307C0E817F9074C
S11303E0C9F781E003C080E001C080E00F900F9066
S11303F00F900F90DF91CF91089588BB949A9598B0
S1130400969A81EE94E00197F1F700C00000969867
S1130410089588BB94989598969A81EE94E00197F4
S1130420F1F700C000009698089585EA9EE00197D0
S1130430F1F700C000008FEF87BB81B3806781BBF9
S113044088E30E94090281EE94E00197F1F700C06D
S1130450000081E00E94090281EE94E00197F1F727
S113046000C0000082E00E94090281EE94E001973E
S1130470F1F700C0000086E00E94090281EE94E0DA
S11304800197F1F700C0000080E80E94090281EEA4
S113049094E00197F1F700C000000895882321F04B
S11304A0813021F480EC03C080E801C080E0603139
S11304B008F4860F0E940902089581E00E9409024F
S11304C081EE94E00197F1F700C000000895CF9306
S11304D080EC0E94090289EF90E00197F1F700C0D7
S11304E00000C0E180E20E94FD01C150D9F7CF9124
S11304F00895CF9380E80E94090289EF90E0019764
S1130500F1F700C00000C0E180E20E94FD01C1508B
S1130510D9F7CF910895CF93DF93EC018881882395
S113052061F021960E94FD0189EF90E00197F1F7B7
S113053000C0000089918111F5CFDF91CF9108951A
S11305400E945D028DEE92E00197F1F700C0000079
S113055060E080E00E944E0283EF91E00197F1F7A2
S113056000C0000086E990E00E948B0260E081E018
S11305700E944E0284EA90E00E948B029FE926E8E2
S113058081E0915020408040E1F700C000000E94CB
S113059067028FE493EC0197F1F700C0000060E07C
S11305A081E00E944E0284EB90E00E948B029FE95E
S11305B026E881E0915020408040E1F700C000002F
S11305C00E9467028FE493EC0197F1F700C00000EA
S11305D060E081E00E944E0285EC90E00E948B0274
S11305E09FE926E881E0915020408040E1F700C077
S11305F000000E9467028FE493EC0197F1F700C0BA
S1130600000060E081E00E944E0284ED90E00E94D0
S11306108B029FE926E881E0915020408040E1F779
S113062000C000000E9467028FE493EC0197F1F789
S113063000C0000060E081E00E944E0281EE90E084
S11306400E948B029FE926E881E09150204080407F
S1130650E1F700C000000E9467028FE493EC019769
S1130660F1F700C0000060E081E00E944E0280EFDC
S113067090E00E948B029FE926E881E0915020409F
S11306808040E1F700C000000E9467028FE493EC11
S11306900197F1F700C0000060E081E00E944E0283
S11306A085E091E00E948B029FE926E881E0915069
S11306B020408040E1F700C000000E9467028FE400
S11306C093EC0197F1F700C0000060E081E00E9424
S11306D04E0208950F931F93CF93DF93CDB7DEB7E8
S11306E02A970FB6F894DEBF0FBECDBF162F042F86
S11306F04AE0BE016F5F7F4F0E946C0B602F812F19
S11307000E944E02CE0101960E948B022A960FB6D9
S1130710F894DEBF0FBECDBFDF91CF911F910F9133
S113072008950E945D028FE091E00E948B02809107
S1130730EC0246E050E060E070E090E00E946A0362
S113074087EA91E60197F1F700C000000E945D027C
S113075060E080E00E944E0286E191E00E948B02FC
S113076060E081E00E944E0284E291E00E948B02EC
S11307700E9488009FE52AEE80E09150204080404E
S1130780E1F700C000000895CF93DF93CDB7DEB743
S113079062970FB6F894DEBF0FBECDBF0E94EF0084
S11307A00E94FB000E9449000E94A2080E949E0031
S11307B00E9411010E9486000E94EB080E9415020B
S11307C087EE93E00197F1F700C000000E94180142
S11307D087EE93E00197F1F700C000000F2EFCEBC9
S11307E02F2EF02D0F2EFAEF3F2EF02D0E94140124
S11307F0882309F407C41092F2021092F1028CE0EB
S11308000E94090287EE93E00197F1F700C000000F
S113081060E080E00E944E0280E391E00E948B023F
S11308209FED22E282E0915020408040E1F700C039
S1130830000072C00E945D0283EF91E00197F1F71E
S113084000C000008EE391E00E948B0260E081E032
S11308500E944E0283EC99E00197F1F700C000007A
S113086064E0CE0101960E949E01882359F1CE01D5
S113087001960E94D401882371F08EE491E00E94D5
S11308808B029FE32DE083E0915020408040E1F70C
S113089000C0000045C088E591E00E948B029FE300
S11308A02DE083E0915020408040E1F700C000003B
S11308B08091F1029091F20201969093F20280935A
S11308C0F10216C084E691E00E948B029FE32DE0C2
S11308D083E0915020408040E1F700C00000809107
S11308E0F1029091F20201969093F2028093F10248
S11308F08091F1029091F202039714F00E94880013
S113090083ED90E30197F1F700C000000E946702B5
S113091060E081E00E944E020E94140181118ACF9E
S11309200E945D028DEE92E00197F1F700C0000095
S113093060E080E00E944E0260C30E94A00287E84B
S113094093E10197F1F700C0000005C00E941C016B
S1130950182F8E3421F40E9414018111F7CF113322
S113096079F581E791E00E948B028BE792E9019788
S1130970F1F700C000000E945D0260E080E00E9488
S11309804E0283E791E00E948B0260E081E00E94C6
S11309904E0281E891E00E948B020CC00E941C016F
S11309A0803331F413BC1092E9021092E80206C0BD
S11309B00E940F090E9414018111F0CFDF981DC31A
S11309C0123391F52CC00E941C01803309F415C325
S11309D00E945D028DEE92E00197F1F700C00000E5
S11309E060E080E00E944E028FE091E00E948B0262
S11309F08091EC0246E050E060E070E090E00E94FC
S1130A006A0360E081E00E944E0281E991E00E9465
S1130A108B0283EC99E00197F1F700C000000E947B
S1130A2014018111D0CFE9C2133309F084C00E94AC
S1130A308B0887EA91E60197F1F700C000000E9455
S1130A405D028DEE92E00197F1F700C000006EC0E8
S1130A5060E080E00E944E0223BC82EA91E00E94A2
S1130A608B0260E081E00E944E0283EB91E00E94E1
S1130A708B0283EC99E00197F1F700C000000E941B
S1130A801C01803309F04FC0B8C233BC87EA91E639
S1130A900197F1F700C000000E945D0260E080E071
S1130AA00E944E0284EC91E00E948B0260E081E09F
S1130AB00E944E0282ED91E00E948B0287EA91E649
S1130AC00197F1F700C0000060E081E00E944E024F
S1130AD084EE91E00E948B028FE493EC0197F1F78E
S1130AE000C000000E941C018D3379F623BC0E94D3
S1130AF05D0260E080E00E944E0284EF91E00E947B
S1130B008B0260E081E00E944E0283E092E00E944A
S1130B108B029FE926E881E0915020408040E1F774
S1130B2000C0000003C0813309F4AFCF0E94140158
S1130B3081118ECF62C2143309F0CEC0BEC00E94B0
S1130B401C01803309F458C282E00E9450007C01E9
S1130B5083E00E9450008C01B701FF0C880B990BB5
S1130B600E94D9092DEC3CEC4CE45AE30E94650A3E
S1130B700E94A1096E837F8388879987B801110F2A
S1130B80880B990B0E94D9092DEC3CEC4CE45AE3F8
S1130B900E94650A0E94A1096A877B878C879D87CA
S1130BA06A857B858E819F810E945B0083ED90E343
S1130BB00197F1F700C0000092E0491651040CF4CB
S1130BC064C06E817F816C197D09072E000C880B2F
S1130BD0990B0E94D9096B017C016A857B85681990
S1130BE07909072E000C880B990B0E94D9094B0137
S1130BF05C019B01AC010E94650A6E877F87888B2C
S1130C00998BA5019401C501B4010E94650A4B01A9
S1130C105C01A7019601C701B6010E94650A9B0108
S1130C20AC01C501B4010E9435090E94FC0A0E946E
S1130C30D20A6B017C01B301770C880B990B0E94DB
S1130C40D909A70196010E9435090E94A1096B01E7
S1130C507C013B010E94670260E081E00E944E0239
S1130C6086E192E00E948B0246E050E061E070E091
S1130C70C6010E946A038DE192E00E948B0287EA1A
S1130C8091E60197F1F700C000000E94670260E05E
S1130C9081E00E944E0280E292E00E948B0283ED8A
S1130CA090E30197F1F700C000009FEF491A590A39
S1130CB08A849B84CE80DF8009C0412C512C612C16
S1130CC0712C812C912CC12CD12C1A8B0E941401D3
S1130CD0811135CF1A8991C1153309F04AC00E9498
S1130CE05D020E94790269E080E00E944E028FE278
S1130CF092E00E948B0260E081E00E944E0287E352
S1130D0092E00E948B020E94AB082EC00E94C3088E
S1130D100E941C01803349F40E94B2081092F00230
S1130D201092EF021092EE0268C1813379F40E94AE
S1130D30B20807C00E941C01813319F40E94AB0859
S1130D4013C00E9414018111F5CF0EC0823361F4E7
S1130D500E94B6080E94790269E080E00E944E0277
S1130D608FE292E00E948B020E9414018111CECF87
S1130D7044C1163309F041C1D7C00E941C0180331D
S1130D8009F4E7C00E945D0260E080E00E944E0228
S1130D9088E492E00E948B0260E081E00E944E02AF
S1130DA087E592E00E948B022FE986E891E02150CA
S1130DB080409040E1F700C0000082E00E945000B3
S1130DC06C0183E00E9450008C01B601DD0C880B9D
S1130DD0990B0E94D90920E030E040E05CE30E94D6
S1130DE0650A0E94A1094B015C01B801110F880B2F
S1130DF0990B0E94D90920E030E040E05CE30E94B6
S1130E00650A0E94A1098B018E149F0431F46615B2
S1130E10770509F001C1830184C0C4010E945B000D
S1130E20E814F904C4F48A859B8501969B878A8714
S1130E300E94790260E080E00E944E0288E692E01F
S1130E400E948B0287EA91E60197F1F700C0000047
S1130E500E94790218C08E149F04ACF48E859F857D
S1130E6001969F878E870E94790260E080E00E944D
S1130E704E0289E792E00E948B0287EA91E601978D
S1130E80F1F700C0000060167106CCF48E819F81DA
S1130E904816590684F59FEF491A590A0E947902A7
S1130EA060E080E00E944E0289E892E00E948B029A
S1130EB087EA91E60197F1F700C000001CC006150F
S1130EC01705CCF48E819F8148165906A1F4C201FE
S1130ED001969F838E830E94790260E080E00E94E5
S1130EE04E0285E992E00E948B0287EA91E601971F
S1130EF0F1F700C00000C4014497CD9790F00E9420
S1130F00790260E080E00E944E0287EA92E00E944B
S1130F108B020E94880087EA91E60197F1F700C0EE
S1130F2000003801740111C091E09E831F82412C9E
S1130F30512C1B861A861F861E86612C712C0F2E3F
S1130F40F2E3EF2EF12CF02D1A8B0E941401811183
S1130F5014CF1A890E945D0260E080E00E944E0274
S1130F608CE692E00E948B024DE050E060E070E07D
S1130F708A859B850E946A0388EB92E00E948B021B
S1130F8060E081E00E944E028DE792E00E948B02B5
S1130F904DE050E061E070E08E859F850E946A0319
S1130FA088EB92E00E948B022FE58AEE90E02150BC
S1130FB080409040E1F700C000000E945D0260E0C4
S1130FC080E00E944E028AEB92E00E948B024AE08B
S1130FD050E060E070E0C2010E946A0388EB92E096
S1130FE00E948B022FE58AEE90E0215080409040D1
S1130FF0E1F700C0000001C01A890E9414018111A8
S11310009CCCF4CB88E00E94090283EF91E0019725
S1131010F1F700C00000EACBC4010E945B0033CFAB
S11310201F920F920FB60F9211248F939F9380916A
S1131030ED028F5F8093ED028091EC0294EC980FA7
S1131040993240F0882331F08091EB028F5F8093D6
S1131050EB0202C01092EB029F918F910F900FBE92
S11310600F901F9018951F920F920FB60F92112494
S11310702F933F934F935F936F937F938F939F939C
S1131080AF93BF93EF93FF938091EA028F5F8093B6
S1131090EA02823020F00E9404011092EA02809158
S11310A0EB02833010F00E949103FF91EF91BF9106
S11310B0AF919F918F917F916F915F914F913F91EC
S11310C02F910F900FBE0F901F9018951F920F92A3
S11310D00FB60F9211248F938091F0028F5F8C339F
S11310E019F08093F00211C01092F0028091EF0287
S11310F08F5F8C3319F08093EF0207C01092EF02D8
S11311008091EE028F5F8093EE028F910F900FBE5D
S11311100F901F9018958AB3806C8ABBDE9ADF9873
S113112085B5886485BD85B5806285BD85B58260D9
S113113085BD8CEB83BD83ED90E30197F1F700C08F
S11311400000089512BE83B7877883BF89B7816092
S113115089BF7894089583B7856083BF83B78D7FF3
S113116083BF089583B7887F83BF08951092F002E8
S11311701092EF021092EE0283B7856083BF83B7AB
S11311808D7F83BF089560E080E00E944E028091CD
S1131190EE0240E050E060E070E090E00E946A03FC
S11311A086E690E00E948B028091EF0243E050E0DB
S11311B060E070E090E00E946A0386E690E00E949E
S11311C08B028091F00246E050E060E070E090E035
S11311D00E946A030895D09887E886B980EE87B99B
S11311E00895CF93DF93D82F8DE80E940902CDECA8
S11311F0DC9FC12D1124C695C695C69580E38C0F3E
S11312000E94FD01CC0F8C2F880F880FC80F8D2FE3
S11312108C1B805D0E94FD01DF91CF910895CF93D7
S1131220369A3499FECFC5B18C2F0E94F1088C2FC9
S113123090E084976CF00E94670260E081E00E9475
S11312404E0285EC92E00E948B020E94AE000AC01E
S11312500E94670260E081E00E944E0286ED92E007
S11312600E948B02CF9108955058BB27AA270E9451
S11312704C090C942B0A0E941D0A38F00E94240A7F
S113128020F039F49F3F19F426F40C941A0A0EF452
S1131290E095E7FB0C94140AE92F0E943C0A58F3EA
S11312A0BA17620773078407950720F079F4A6F547
S11312B00C945E0A0EF4E0950B2EBA2FA02D0B01B0
S11312C0B90190010C01CA01A0011124FF27591B87
S11312D099F0593F50F4503E68F11A16F040A22F8D
S11312E0232F342F4427585FF3CF469537952795FE
S11312F0A795F0405395C9F77EF41F16BA0B620BFD
S1131300730B840BBAF09150A1F0FF0FBB1F661F43
S1131310771F881FC2F70EC0BA0F621F731F841F86
S113132048F4879577956795B795F7959E3F08F0AC
S1131330B0CF9395880F08F09927EE0F979587956E
S113134008950E94A8096894B1110C945F0A089545
S11313500E94440A88F09F5798F0B92F9927B751F3
S1131360B0F0E1F0660F771F881F991F1AF0BA9545
S1131370C9F714C0B13091F00E945E0AB1E008953B
S11313800C945E0A672F782F8827B85F39F0B93F2D
S1131390CCF3869577956795B395D9F73EF49095F8
S11313A08095709561957F4F8F4F9F4F0895E89476
S11313B009C097FB3EF490958095709561957F4F99
S11313C08F4F9F4F9923A9F0F92F96E9BB27939547
S11313D0F695879577956795B795F111F8CFFAF457
S11313E0BB0F11F460FF1BC06F5F7F4F8F4F9F4F88
S11313F016C0882311F096E911C0772321F09EE8E6
S1131400872F762F05C0662371F096E8862F70E04B
S113141060E02AF09A95660F771F881FDAF7880F25
S11314209695879597F9089597F99F6780E870E0F6
S113143060E008959FEF80EC089500240A94161646
S1131440170618060906089500240A9412161306AE
S1131450140605060895092E0394000C11F488233C
S113146052F0BB0F40F4BF2B11F460FF04C06F5F58
S11314707F4F8F4F9F4F089557FD9058440F551F2E
S113148059F05F3F71F04795880F97FB991F61F002
S11314909F3F79F087950895121613061406551F79
S11314A0F2CF4695F1DF08C0161617061806991FE5
S11314B0F1CF86957105610508940895E894BB27DA
S11314C066277727CB0197F908950E94780A0C9430
S11314D02B0A0E941D0A38F00E94240A20F095234A
S11314E011F00C94140A0C941A0A11240C945F0A37
S11314F00E943C0A70F3959FC1F3950F50E0551F6D
S1131500629FF001729FBB27F00DB11D639FAA2754
S1131510F00DB11DAA1F649F6627B00DA11D661FA3
S1131520829F2227B00DA11D621F739FB00DA11DC4
S1131530621F839FA00D611D221F749F3327A00D7E
S1131540611D231F849F600D211D822F762F6A2F1A
S113155011249F5750409AF0F1F088234AF0EE0F7F
S1131560FF1FBB1F661F771F881F91505040A9F7AC
S11315709E3F510580F00C94140A0C945F0A5F3F5F
S1131580E4F3983ED4F3869577956795B795F795E8
S1131590E7959F5FC1F7FE2B880F911D9695879560
S11315A097F908950E94440AE8F09E37E8F09639C6
S11315B0B8F49E3848F4672F782F8827985FF9CFBE
S11315C086957795679593959539D0F3B62FB17035
S11315D06B0F711D811D20F4879577956795939501
S11315E00C943C0B0C94570B0C945F0A19F416F4EE
S11315F00C941A0A0C94570B0E94440AB8F39923CA
S1131600C9F3B6F39F57550B87FF0E94650B00245F
S1131610A0E640EA900180585695979528F4805C9E
S1131620660F771F881F20F026173707480730F406
S1131630621B730B840B202931294A2BA69517941E
S11316400794202531254A2758F7660F771F881FEE
S113165020F026173707480730F4620B730B840B0E
S1131660200D311D411DA09581F7B901842F91589A
S1131670880F969587950895882371F4772321F030
S11316809850872B762F07C0662311F499270DC035
S11316909051862B70E060E02AF09A95660F771FD0
S11316A0881FDAF7880F9695879597F908959F3FD5
S11316B031F0915020F4879577956795B795880F09
S11316C0911D9695879597F9089591505040660F0E
S11316D0771F881FD2F70895BB274A3031F4992326
S11316E022F4BDE2909581959F4F0C94780BBB2713
S11316F0FB015527AA27880F991FAA1FA41710F0CA
S1131700A41B83955051B9F7A05DAA3308F0A95DD5
S1131710A193009779F7B111B1931192CB010C9475
S1131720910BDC01FC01672F71917723E1F732976C
S113173004C07C916D9370836291AE17BF07C8F3A8
S10917400895F894FFCFA8
S1131746583A200020593A006669727374207370FF
S1131756656564007365636F6E64207370656564A4
S1131766007468697264207370656564004E6F2046
S113177673706565640043686F6F7365204D6F64AD
S1131786653A200031292054656D7065726174755F
S1131796726520003229486561727462656174203D
S11317A652617465003329204D6564696361746907
S11317B66F6E200034292044697374616E6365205A
S11317C60035292053746F702057617463682000B4
S11317D6362920536C656570204D6F6E69746F727F
S11317E6696E672000372920526574727920004299
S11317F6504D203D2000426C6F6F64547970653AF9
S1131806204F2B00303132373937303738313900F1
S113181648656C6C6F205468657265212000456EBE
S11318267465722050617373436F646521002020D0
S1131836436F727265637400202054727920416785
S113184661696E002020496E636F6D706C65746506
S113185600310054656D70657261747572653D2062
S1131866007072657373203020746F204578697434
S1131876007072657373203020746F204578697424
S113188620004D656469636174696F6E2074696DC7
S1131896653F0030203D204E4F202F2031203D2033
S11318A659455300447261776572204F70656E2006
S11318B6210054616B6520796F75722042696C6CE6
S11318C67320210066696E6973683F20686F6C64D3
S11318D6203D200044726177657220636C6F7365E6
S11318E664210077697468206772656174204865AD
S11318F6616C74682100646973743D2000636D0033
S1131906686F6C64203020746F2045786974006FAA
S11319162D3E4578697400312D3E73746F702F32F5
S11319262D3E726573657400537765657420447241
S113193665616D73202100686F6C642030206966D0
S1131946206177616B656E00796F75207475726EB0
S1131956656420726967687400796F75207475729E
S11319666E6564206C65667400446973747572628E
S1131976656420210066656C6C206261636B20617E
S1131986736C656570210061626F757420746F20D5
S113199646616C6C4F4646007800646973747572D0
S11319A6626564200046616E204F4E2F3020746FAE
S11319B620457869740046616E4F46462F30207480
S10B19C66F20457869740000EC
S9030000FC
